{
  "contractName": "FourInARow",
  "abi": [
    {
      "inputs": [],
      "payable": false,
      "stateMutability": "nonpayable",
      "type": "constructor"
    },
    {
      "anonymous": false,
      "inputs": [
        {
          "indexed": true,
          "name": "_gameId",
          "type": "uint8"
        },
        {
          "indexed": false,
          "name": "_playerNr",
          "type": "uint8"
        },
        {
          "indexed": false,
          "name": "_colNr",
          "type": "uint8"
        }
      ],
      "name": "Move",
      "type": "event"
    },
    {
      "constant": true,
      "inputs": [
        {
          "name": "gameId",
          "type": "uint8"
        },
        {
          "name": "playerNr",
          "type": "uint8"
        }
      ],
      "name": "playerMoves",
      "outputs": [
        {
          "name": "moves",
          "type": "bytes32"
        }
      ],
      "payable": false,
      "stateMutability": "view",
      "type": "function"
    },
    {
      "constant": false,
      "inputs": [],
      "name": "createGame",
      "outputs": [
        {
          "name": "gameid",
          "type": "uint8"
        }
      ],
      "payable": false,
      "stateMutability": "nonpayable",
      "type": "function"
    },
    {
      "constant": false,
      "inputs": [
        {
          "name": "gameid",
          "type": "uint8"
        }
      ],
      "name": "joinGame",
      "outputs": [],
      "payable": false,
      "stateMutability": "nonpayable",
      "type": "function"
    },
    {
      "constant": true,
      "inputs": [
        {
          "name": "gameid",
          "type": "uint8"
        }
      ],
      "name": "getPlayerIndex",
      "outputs": [
        {
          "name": "playerIndex",
          "type": "uint8"
        }
      ],
      "payable": false,
      "stateMutability": "view",
      "type": "function"
    },
    {
      "constant": false,
      "inputs": [
        {
          "name": "gameid",
          "type": "uint8"
        },
        {
          "name": "col",
          "type": "uint8"
        }
      ],
      "name": "makeMove",
      "outputs": [
        {
          "name": "isWinner",
          "type": "bool"
        }
      ],
      "payable": false,
      "stateMutability": "nonpayable",
      "type": "function"
    }
  ],
  "bytecode": "0x6060604052341561000f57600080fd5b6000600360006101000a81548160ff021916908360ff160217905550610a708061003a6000396000f30060606040526004361061006d576000357c0100000000000000000000000000000000000000000000000000000000900463ffffffff16806335b25734146100725780635e24b0f1146100b25780637255d729146100fc57806385d2692e1461012b578063d0ae92fb14610179575b600080fd5b341561007d57600080fd5b610096600480803560ff1690602001909190505061019f565b604051808260ff1660ff16815260200191505060405180910390f35b34156100bd57600080fd5b6100e2600480803560ff1690602001909190803560ff169060200190919050506102ed565b604051808215151515815260200191505060405180910390f35b341561010757600080fd5b61010f61040d565b604051808260ff1660ff16815260200191505060405180910390f35b341561013657600080fd5b61015b600480803560ff1690602001909190803560ff16906020019091905050610602565b60405180826000191660001916815260200191505060405180910390f35b341561018457600080fd5b61019d600480803560ff16906020019091905050610695565b005b6000808260ff16101515156101b357600080fd5b6001600360009054906101000a900460ff160360ff168260ff161015156101d957600080fd5b3373ffffffffffffffffffffffffffffffffffffffff16600260008460ff1660ff168152602001908152602001600020600060028110151561021757fe5b0160009054906101000a900473ffffffffffffffffffffffffffffffffffffffff1673ffffffffffffffffffffffffffffffffffffffff16141561025e57600090506102e8565b3373ffffffffffffffffffffffffffffffffffffffff16600260008460ff1660ff168152602001908152602001600020600160028110151561029c57fe5b0160009054906101000a900473ffffffffffffffffffffffffffffffffffffffff1673ffffffffffffffffffffffffffffffffffffffff1614156102e357600190506102e8565b600080fd5b919050565b60008060008060008660ff161015151561030657600080fd5b6001600360009054906101000a900460ff160360ff168660ff1610151561032c57600080fd5b60008560ff1610158015610344575060078560ff1611155b151561034f57600080fd5b6103588661019f565b9250600160008760ff1660ff1681526020019081526020016000208360ff1660028110151561038357fe5b602091828204019190069054906101000a900460000b9150600160008760ff1660ff1681526020019081526020016000208360ff166002811015156103c457fe5b6020918282040191900681819054906101000a900460000b8092919060010191906101000a81548160ff021916908360000b60ff16021790555090506000935050505092915050565b60006104176107bc565b61041f6107f9565b610427610823565b6003600081819054906101000a900460ff168092919060010191906101000a81548160ff021916908360ff160217905550506001600360009054906101000a900460ff160393503383600060028110151561047e57fe5b602002019073ffffffffffffffffffffffffffffffffffffffff16908173ffffffffffffffffffffffffffffffffffffffff168152505060008360016002811015156104c657fe5b602002019073ffffffffffffffffffffffffffffffffffffffff16908173ffffffffffffffffffffffffffffffffffffffff168152505082600260008660ff1660ff16815260200190815260200160002090600261052592919061084c565b50816000808660ff1660ff16815260200190815260200160002090600261054d9291906108c9565b507fffffffffffffffffffffffffffffffffffffffffffffffffffffffffffffffff81600060028110151561057e57fe5b602002019060000b908160000b815250507fffffffffffffffffffffffffffffffffffffffffffffffffffffffffffffffff8160016002811015156105bf57fe5b602002019060000b908160000b8152505080600160008660ff1660ff1681526020019081526020016000209060026105f892919061090f565b5083935050505090565b6000808360ff1660208110151561061557fe5b1a7f0100000000000000000000000000000000000000000000000000000000000000028260ff1660018110151561064857fe5b1a7f0100000000000000000000000000000000000000000000000000000000000000027effffffffffffffffffffffffffffffffffffffffffffffffffffffffffffff1916905092915050565b60008160ff16101515156106a857600080fd5b6001600360009054906101000a900460ff160360ff168160ff161015156106ce57600080fd5b600073ffffffffffffffffffffffffffffffffffffffff16600260008360ff1660ff168152602001908152602001600020600160028110151561070d57fe5b0160009054906101000a900473ffffffffffffffffffffffffffffffffffffffff1673ffffffffffffffffffffffffffffffffffffffff161415151561075257600080fd5b33600260008360ff1660ff168152602001908152602001600020600160028110151561077a57fe5b0160006101000a81548173ffffffffffffffffffffffffffffffffffffffff021916908373ffffffffffffffffffffffffffffffffffffffff16021790555050565b60408051908101604052806002905b600073ffffffffffffffffffffffffffffffffffffffff168152602001906001900390816107cb5790505090565b60408051908101604052806002905b60008019168152602001906001900390816108085790505090565b60408051908101604052806002905b6000800b8152602001906001900390816108325790505090565b82600281019282156108b8579160200282015b828111156108b75782518260006101000a81548173ffffffffffffffffffffffffffffffffffffffff021916908373ffffffffffffffffffffffffffffffffffffffff1602179055509160200191906001019061085f565b5b5090506108c591906109ac565b5090565b82600281019282156108fe579160200282015b828111156108fd5782518290600019169055916020019190600101906108dc565b5b50905061090b91906109ef565b5090565b826002601f0160209004810192821561099b5791602002820160005b8382111561096c57835183826101000a81548160ff021916908360000b60ff160217905550926020019260010160208160000104928301926001030261092b565b80156109995782816101000a81549060ff021916905560010160208160000104928301926001030261096c565b505b5090506109a89190610a14565b5090565b6109ec91905b808211156109e857600081816101000a81549073ffffffffffffffffffffffffffffffffffffffff0219169055506001016109b2565b5090565b90565b610a1191905b80821115610a0d5760008160009055506001016109f5565b5090565b90565b610a4191905b80821115610a3d57600081816101000a81549060ff021916905550600101610a1a565b5090565b905600a165627a7a72305820c7020a9267fdc3e96f2f1595b322a1b2397e89034abe118158bb450ce3c74e3b0029",
  "source": "pragma solidity ^0.4.16;\n\ncontract FourInARow {\n\tmapping (uint8=>bytes32[2]) gameMoves;\n\tmapping (uint8=>int8[2]) gameLastMoveIndex;\n\tmapping (uint8=>address[2]) gamePlayers;\n\tuint8 gameCount;\n\n\tfunction playerMoves(uint8 gameId, uint8 playerNr) public view returns (bytes32 moves) {\n\t\treturn moves[gameId][playerNr];\n\t}\n\n\tevent Move(uint8 indexed _gameId, uint8 _playerNr, uint8 _colNr);\n\n\tfunction FourInARow() public {\n\t\tgameCount = 0;\n\t}\n\n\tfunction createGame() public returns (uint8 gameid) {\n\t\t// todo: take msg.value as stake (including require(msg.value > 0))\n\n\t\tgameCount++;\n\t\tgameid = gameCount - 1;\n\n\t\taddress[2] memory players;\n\t\tplayers[0] = msg.sender; // p1\n\t\tplayers[1] = address(0); // p2 (joins later)\n\t\tgamePlayers[gameid] = players;\n\n\t\tbytes32[2] memory moves;\n\t\tgameMoves[gameid] = moves;\n\n\t\tint8[2] memory lastMoveIndexes;\n\t\tlastMoveIndexes[0] = -1;\n\t\tlastMoveIndexes[1] = -1;\n\t\tgameLastMoveIndex[gameid] = lastMoveIndexes;\n\n\t\treturn gameid;\n\t}\n\n\tfunction joinGame(uint8 gameid) {\n\t\trequire(gameid >= 0);\n\t\trequire(gameid < (gameCount - 1));\n\t\trequire(gamePlayers[gameid][1] != address(0));\n\n\t\tgamePlayers[gameid][1] = msg.sender;\n\t\t// todo: process msg.value as matching stake\n\t}\n\n\tfunction getPlayerIndex(uint8 gameid) public view returns (uint8 playerIndex) {\n\t\trequire(gameid >= 0);\n\t\trequire(gameid < (gameCount - 1));\n\n\t\tif (gamePlayers[gameid][0] == msg.sender) {\n\t\t\treturn 0;\n\t\t} else if (gamePlayers[gameid][1] == msg.sender) {\n\t\t\treturn 1;\n\t\t}\n\t\trevert(); // throw\n\t}\n\n\tfunction makeMove(uint8 gameid, uint8 col) public returns(bool isWinner) {\n\t\trequire(gameid >= 0);\n\t\trequire(gameid < (gameCount - 1));\n\t\trequire(col >= 0 && col <= 7);\n\n\t\tuint8 playerIndex = getPlayerIndex(gameid);\n\t\tint8 lastMoveIndex = gameLastMoveIndex[gameid][playerIndex];\n\t\tint8 newMoveIndex = gameLastMoveIndex[gameid][playerIndex]++;\n\t\t\n\t\t//gameMoves[gameid][playerIndex][newMoveIndex] = col;\n\n\t\treturn false;\n\t}\n}\n",
  "sourcePath": "C:\\Data\\Src\\ng2\\contracts\\FourInARow.sol",
  "compiler": {
    "name": "solc",
    "version": "0.4.21+commit.dfe3193c.Emscripten.clang"
  },
  "schemaVersion": "2.0.0",
  "updatedAt": "2018-05-25T09:46:22.516Z"
}