{
  "contractName": "FourInARow",
  "abi": [
    {
      "inputs": [],
      "payable": false,
      "stateMutability": "nonpayable",
      "type": "constructor"
    },
    {
      "anonymous": false,
      "inputs": [
        {
          "indexed": true,
          "name": "_gameId",
          "type": "uint8"
        },
        {
          "indexed": false,
          "name": "_playerIndex",
          "type": "uint8"
        },
        {
          "indexed": false,
          "name": "_colNr",
          "type": "uint8"
        }
      ],
      "name": "Moved",
      "type": "event"
    },
    {
      "constant": false,
      "inputs": [],
      "name": "createGame",
      "outputs": [
        {
          "name": "gameid",
          "type": "uint8"
        }
      ],
      "payable": false,
      "stateMutability": "nonpayable",
      "type": "function"
    },
    {
      "constant": false,
      "inputs": [
        {
          "name": "gameid",
          "type": "uint8"
        }
      ],
      "name": "joinGame",
      "outputs": [],
      "payable": false,
      "stateMutability": "nonpayable",
      "type": "function"
    },
    {
      "constant": true,
      "inputs": [
        {
          "name": "gameid",
          "type": "uint8"
        }
      ],
      "name": "getPlayerIndex",
      "outputs": [
        {
          "name": "playerIndex",
          "type": "uint8"
        }
      ],
      "payable": false,
      "stateMutability": "view",
      "type": "function"
    },
    {
      "constant": false,
      "inputs": [
        {
          "name": "gameid",
          "type": "uint8"
        },
        {
          "name": "col",
          "type": "uint8"
        }
      ],
      "name": "makeMove",
      "outputs": [
        {
          "name": "isWinner",
          "type": "bool"
        }
      ],
      "payable": false,
      "stateMutability": "nonpayable",
      "type": "function"
    }
  ],
  "bytecode": "0x6060604052341561000f57600080fd5b6000600160006101000a81548160ff021916908360ff1602179055506109138061003a6000396000f300606060405260043610610062576000357c0100000000000000000000000000000000000000000000000000000000900463ffffffff16806335b25734146100675780635e24b0f1146100a75780637255d729146100f1578063d0ae92fb14610120575b600080fd5b341561007257600080fd5b61008b600480803560ff16906020019091905050610146565b604051808260ff1660ff16815260200191505060405180910390f35b34156100b257600080fd5b6100d7600480803560ff1690602001909190803560ff16906020019091905050610297565b604051808215151515815260200191505060405180910390f35b34156100fc57600080fd5b6101046103bd565b604051808260ff1660ff16815260200191505060405180910390f35b341561012b57600080fd5b610144600480803560ff1690602001909190505061058a565b005b6000808260ff161015151561015a57600080fd5b60018060009054906101000a900460ff160360ff168260ff1610151561017f57600080fd5b3373ffffffffffffffffffffffffffffffffffffffff166000808460ff1660ff16815260200190815260200160002060000160006002811015156101bf57fe5b0160009054906101000a900473ffffffffffffffffffffffffffffffffffffffff1673ffffffffffffffffffffffffffffffffffffffff1614156102065760009050610292565b3373ffffffffffffffffffffffffffffffffffffffff166000808460ff1660ff168152602001908152602001600020600001600160028110151561024657fe5b0160009054906101000a900473ffffffffffffffffffffffffffffffffffffffff1673ffffffffffffffffffffffffffffffffffffffff16141561028d5760019050610292565b600080fd5b919050565b60008060008460ff16101515156102ad57600080fd5b60018060009054906101000a900460ff160360ff168460ff161015156102d257600080fd5b60078360ff16111515156102e557600080fd5b6102ee84610146565b90506000808560ff1660ff1681526020019081526020016000206002018160ff1660028110151561031b57fe5b01805480600101828161032e91906106b4565b916000526020600020906020918282040191900685909190916101000a81548160ff021916908360ff160217905550508360ff167f08d7230e0092da99ef49fedbd17fe1835ca5a28b619358734ec27e09cbd3afc08285604051808360ff1660ff1681526020018260ff1660ff1681526020019250505060405180910390a260028360ff161491505092915050565b60006103c76106ee565b6001600081819054906101000a900460ff168092919060010191906101000a81548160ff021916908360ff1602179055505060018060009054906101000a900460ff160391503381600060028110151561041d57fe5b602002019073ffffffffffffffffffffffffffffffffffffffff16908173ffffffffffffffffffffffffffffffffffffffff1681525050600081600160028110151561046557fe5b602002019073ffffffffffffffffffffffffffffffffffffffff16908173ffffffffffffffffffffffffffffffffffffffff1681525050806000808460ff1660ff1681526020019081526020016000206000019060026104c692919061072b565b5060006040518059106104d65750595b90808252806020026020018201604052506000808460ff1660ff168152602001908152602001600020600201600060028110151561051057fe5b0190805190602001906105249291906107a8565b5060006040518059106105345750595b90808252806020026020018201604052506000808460ff1660ff168152602001908152602001600020600201600160028110151561056e57fe5b0190805190602001906105829291906107a8565b508191505090565b60008160ff161015151561059d57600080fd5b60018060009054906101000a900460ff160360ff168160ff161015156105c257600080fd5b600073ffffffffffffffffffffffffffffffffffffffff166000808360ff1660ff168152602001908152602001600020600001600160028110151561060357fe5b0160009054906101000a900473ffffffffffffffffffffffffffffffffffffffff1673ffffffffffffffffffffffffffffffffffffffff161415151561064857600080fd5b336000808360ff1660ff168152602001908152602001600020600001600160028110151561067257fe5b0160006101000a81548173ffffffffffffffffffffffffffffffffffffffff021916908373ffffffffffffffffffffffffffffffffffffffff16021790555050565b8154818355818115116106e957601f016020900481601f016020900483600052602060002091820191016106e8919061084f565b5b505050565b60408051908101604052806002905b600073ffffffffffffffffffffffffffffffffffffffff168152602001906001900390816106fd5790505090565b8260028101928215610797579160200282015b828111156107965782518260006101000a81548173ffffffffffffffffffffffffffffffffffffffff021916908373ffffffffffffffffffffffffffffffffffffffff1602179055509160200191906001019061073e565b5b5090506107a49190610874565b5090565b82805482825590600052602060002090601f0160209004810192821561083e5791602002820160005b8382111561080f57835183826101000a81548160ff021916908360ff16021790555092602001926001016020816000010492830192600103026107d1565b801561083c5782816101000a81549060ff021916905560010160208160000104928301926001030261080f565b505b50905061084b91906108b7565b5090565b61087191905b8082111561086d576000816000905550600101610855565b5090565b90565b6108b491905b808211156108b057600081816101000a81549073ffffffffffffffffffffffffffffffffffffffff02191690555060010161087a565b5090565b90565b6108e491905b808211156108e057600081816101000a81549060ff0219169055506001016108bd565b5090565b905600a165627a7a72305820bb941e3cdc4a69d939087cad6cccc32b7b3abee33fbb180c5771148f937b35570029",
  "source": "pragma solidity ^0.4.16;\n\ncontract FourInARow {\n\tstruct Game {\n\t\taddress[2] Players;\n\t\tuint8[][2] Moves;\n\t}\n\t\n\tmapping (uint8=>Game) games;\n\tuint8 gameCount;\n\n\tfunction FourInARow() public {\n\t\tgameCount = 0;\n\t}\n\n\tfunction createGame() public returns (uint8 gameid) {\n\t\t// todo: take msg.value as stake (including require(msg.value > 0))\n\n\t\tgameCount++;\n\t\tgameid = gameCount - 1;\n\n\t\taddress[2] memory players;\n\t\tplayers[0] = msg.sender; // p1\n\t\tplayers[1] = address(0); // p2 (joins later)\n\t\tgames[gameid].Players = players;\n\n\t\t// Todo: check if moves-array really has to be initialized (think not)\n\t\tgames[gameid].Moves[0] = new uint8[](0);\n\t\tgames[gameid].Moves[1] = new uint8[](0);\n\n\t\treturn gameid;\n\t}\n\n\tfunction joinGame(uint8 gameid) public {\n\t\trequire(gameid >= 0);\n\t\trequire(gameid < (gameCount - 1));\n\t\trequire(games[gameid].Players[1] != address(0));\n\n\t\tgames[gameid].Players[1] = msg.sender;\n\t\t// todo: process msg.value as matching stake\n\t}\n\n\tfunction getPlayerIndex(uint8 gameid) public view returns (uint8 playerIndex) {\n\t\trequire(gameid >= 0);\n\t\trequire(gameid < (gameCount - 1));\n\n\t\tif (games[gameid].Players[0] == msg.sender) {\n\t\t\treturn 0;\n\t\t} else if (games[gameid].Players[1] == msg.sender) {\n\t\t\treturn 1;\n\t\t}\n\t\trevert(); // throw (not a player in this game)\n\t}\n\n\tevent Moved(uint8 indexed _gameId, uint8 _playerIndex, uint8 _colNr);\n\n\tfunction makeMove(uint8 gameid, uint8 col) public returns(bool isWinner) {\n\t\trequire(gameid >= 0);\n\t\trequire(gameid < (gameCount - 1));\n\t\trequire(col <= 7);\n\n\t\tuint8 playerIndex = getPlayerIndex(gameid);\n\t\tgames[gameid].Moves[playerIndex].push(col);\n\t\tMoved(gameid, playerIndex, col);\n\t\t\n\t\t// todo: return if winner\n\t\treturn (col == 2);\n\t}\n}\n",
  "sourcePath": "C:\\Data\\Src\\ng2\\contracts\\FourInARow.sol",
  "compiler": {
    "name": "solc",
    "version": "0.4.21+commit.dfe3193c.Emscripten.clang"
  },
  "schemaVersion": "2.0.0",
  "updatedAt": "2018-05-28T18:33:54.530Z"
}